:1000000028C5012095180100C91D0100A51801008F
:10001000A5180100A5180100A5180100A5180100E8
:10002000000000000000000000000000E1100100DE
:10003000A5180100000000000D110100751101005C
:100040007BFC0000250E0100590E01008D0E010001
:10005000C10E0100810F0100EDE8000015E800006D
:10006000B9E9000011EA00000000000000000000F3
:100070000000000000000000000000000000000080
:100080000000000000000000000000000000000070
:100090000000000000000000000000000000000060
:1000A0000000000000000000000000000000000050
:10040000FFFFFFFFFFFDFFFFFCFFFFFFFFFFFFFF01
:10041000FCFFFFFFFFFFFFFFFCFFFF00FFFFFF00F0
:10042000FCFF0F20FFFF0F20FCFF7F40FFFF7F40FE
:10043000FCFF0D40FFFF0D40FFFFFFFFFFFFFFFF31
:10044000FFFFFFFFFFFFFFFFFFFFFFFFFFFFFFFFBC
:10045000FFFFFFFFFFFFFFFFFFFFFFFFFFFFFFFFAC
:10046000FFFFFFFFFFFFFFFFFFFFFFFFFFFFFFFF9C
:10047000FFFFFFFFFFFFFFFFFFFFFFFFFFFFFFFF8C
:10048000FFFFFFFFFFFFFFFFFFFFFFFFFFFFFFFF7C
:10049000FFFFFFFFFFFFFFFFFFFFFFFFFFFFFFFF6C
:1004A000FFFFFFFFFFFFFFFFFFFFFFFFFFFFFFFF5C
:1004B000FFFFFFFFFFFFFFFFFFFFFFFFFFFFFFFF4C
:1004C000FFFFFFFFFFFFFFFFFFFFFFFFFFFFFFFF3C
:1004D000FFFFFFFFFFFFFFFFFFFFFFFFFFFFFFFF2C
:1004E000FFFFFFFFFFFFFFFFFFFFFFFFFFFFFFFF1C
:1004F000FFFFFFFFFFFFFFFFFFFFFFFFFFFFFFFF0C
:100500000348044B834202D0034B03B118477047A2
:10051000840BFE1F840BFE1F000000000548064BE5
:100520001B1AD90F01EBA301491002D0034B03B1F1
:1005300018477047840BFE1F840BFE1F000000004D
:1005400010B5064C237843B9FFF7DAFF044B13B11B
:100550000448AFF300800123237010BDA00BFE1FE1
:10056000000000002836010008B5054B1BB1054905
:100570000548AFF30080BDE80840FFF7CFBF00BFDC
:1005800000000000A40BFE1F28360100830730B5D1
:1005900047D0541E002A3ED0CAB2034601E0013CB7
:1005A00039D303F8012B9D07F9D1032C2CD9CDB2F7
:1005B00005EB05250F2C05EB054535D9A4F11002F7
:1005C00022F00F0C03F1100EE6444FEA121C1A46FB
:1005D000C2E90055C2E9025510327245F8D10CF15A
:1005E000010214F00C0F03EB021204F00F0C13D0F5
:1005F000ACF1040323F003030433134442F8045B17
:100600009342FBD10CF003042CB1C9B21C4403F893
:10061000011BA342FBD130BD64461346002CF4D12C
:10062000F9E703461446C0E71A46A446E0E700BFD0
:10063000704700BF704700BF024B13B1024800F083
:1006400005B8704700000000A90E00000023014615
:100650001A46184600F04ABC2DE9F8430646082021
:10066000894600F035FCDFF89C800546304600F0F6
:10067000FDFBD8F808305F6827F00307A7F11104E5
:10068000A4EB09042C44B4FBF5F4013C05FB04F491
:10069000A54208DC0021304600F0F4FBD8F8083011
:1006A0003B44984205D0304600F0E6FB0020BDE810
:1006B000F8836142304600F0E5FB01300FD0124A6A
:1006C000D8F808303F1B47F001075F6013683046D9
:1006D0001B1B136000F0D0FB0120BDE8F883002154
:1006E000304600F0CFFBD8F80820831A0F2BDADD54
:1006F00043F001035360054B03491B68C01A0860AF
:10070000D1E700BF3801FE1F040DFE1F2C01FE1FA4
:1007100000297CD0F8B50C46064600F0A7FB54F83B
:10072000043C764FA4F1080523F001016818D7F8BE
:1007300008C04268844522F0030200F08380DB0792
:10074000426000EB020C33D454F8084CDCF804305F
:100750002D1B2144AC6807F1080C644503F001032C
:1007600064D0D5F80CE0C4F80CE0CEF80840002BBB
:1007700000F0818041F001036B600160B1F5007F02
:1007800022D27868CB080122490901338A4002430A
:1007900057F833107A6007EBC302083AC5E9021232
:1007A00047F83350CD603046BDE8F84000F064BBF8
:1007B000DCF80430DB072BD541F00103B1F5007FF5
:1007C00044F8043C0160DCD3B1F5206F4FEA5123BB
:1007D00053D28B0903F1390003F13802C300F81832
:1007E000FB580838984203D161E09B68984204D0D6
:1007F0005A6822F003028A42F7D8D868C5E9023065
:100800008560DD603046BDE8F84000F035BB7047DC
:10081000114407F1080C836863453FD0C268DA6071
:10082000936041F001036B606950A7E7002B5FD133
:100830000A44D0E90213CB60996042F001036B6077
:10084000AA50B0E70A44D90707D454F8083CED1A77
:100850001A44D5E90213CB60996042F001036B6042
:10086000274BBD601B6893429DD8264B30461968C4
:10087000FFF7F2FE97E71144CDE7142B08D9542B6C
:100880001DD80B0B03F16F0003F16E02C300A6E746
:1008900003F15C0003F15B02C300A0E741F0010338
:1008A000C7E90455C5E902CC6B6069507BE77968FC
:1008B0009210012404FA02F20A437A609EE7B3F52B
:1008C000AA7F06D8CB0B03F1780003F17702C300AF
:1008D00085E740F25452934206D88B0C03F17D0019
:1008E00003F17C02C3007AE74FF47E737E2276E741
:1008F00041F001036B60016055E700BF3801FE1F46
:100900003001FE1F340DFE1F2DE9F04F01F10B05E4
:10091000162D83B0064623D8102900F2AF8000F0D0
:10092000A5FA102518230220B74F3B44A3F1080273
:100930005C68944200F01F816368E268A16823F05C
:100940000303CA602344304691605A6842F00102B2
:100950005A6000F091FA0834204603B0BDE8F08FE9
:1009600035F0070500F18A80A94200F2878000F087
:100970007DFAB5F5FC7FC0F06E816B0A00F08280D5
:10098000042B00F21E81AB0903F1390003F1380E8C
:10099000C3009D4F3B44A3F1080C5C68A44507D1FC
:1009A0000DE0002AE16880F2E0808C4507D00C461B
:1009B000636823F003035A1B0F2AF2DD7046DFF849
:1009C0004C823C69444500F0BD80636823F0030C11
:1009D000ACEB05030F2B00F34281002BC7E9048821
:1009E00080F22D81BCF5007FD7F804E080F0C9804B
:1009F0004FEADC0101314FEA5C1C012303FA0CF3DE
:100A000057F83120A2604EEA030E07EBC103083B02
:100A1000E360C7F804E047F83140D46083104FF03A
:100A2000010C0CFA03FCF44532D81CEA0E0F08D175
:100A300020F003004FEA4C0C1CEA0E0F00F10400FA
:100A4000F8D007EBC00AD6468146DEF80C300BE042
:100A5000596821F003014A1B0F2A1C46DB6800F38A
:100A6000BC80002A80F2DE809E45F1D109F10109A7
:100A700019F0030F0EF1080EE7D119E10C233360D2
:100A8000002469E74FF4007340204FF03F0E80E7E9
:100A9000BC68636823F00309A94503D3A9EB0503E8
:100AA0000F2B52DC5A4B1B68082003F1100804EB93
:100AB0000903009300F00CFA564A13680133A84466
:100AC000834605D008F1FF388044434203EA080812
:100AD0004146304600F0D6F9B0F1FF3F4D4A82461C
:100AE00000F0D88004EB0903834200F2D1804A4B26
:100AF000186840440BF1FF311860844640F0FB80D9
:100B00001AEA010F40F0F780D7F808A0C84448F06F
:100B10000102CAF80420414B1968814238BF1860AD
:100B20003F4B1968814238BF1860544622F00308D1
:100B3000A845A8EB050301D30F2B06DC304600F0D7
:100B40009BF99DE7D7F804E068E7621943F00103D9
:100B500045F0010565603046BA60536000F08CF9DD
:100B60000834204603B0BDE8F08FA2682344D1606A
:100B700030468A60E9E6DC68A3427FF4DDAE0230ED
:100B80001DE7BCF5206F4FEA5C227AD3142A00F2ED
:100B9000128102F15C03DB005B32F918FB58083963
:100BA000994203D1ECE09B68994204D05A6822F044
:100BB00003026245F7D8D968C4E902318C60DC6071
:100BC0002CE7142B69D9542B00F2FE802B0B03F178
:100BD0006F0003F16E0EC300DBE6D4F808C03046A8
:100BE000661945F001056560CCF80C30C3F808C003
:100BF00042F00103C7E90466C6E9028873606250E7
:100C000000F03AF90834A7E63801FE1F4001FE1F44
:100C1000340DFE1F2C01FE1F040DFE1F300DFE1FA4
:100C20002C0DFE1F214430464A6842F001024A6002
:100C300054F8082FD3609A6000F01EF98CE6A444A3
:100C40003046DCF8043043F00103CCF8043000F007
:100C500013F9083480E6E80805F1080364E6621930
:100C600043F0010145F0010565603046C7E9042203
:100C7000C2E90288516044F80C3000F0FDF80834F5
:100C80006AE64FEA9C1202F13903DB00383284E74E
:100C9000BC4228D0BC68626848E703F15C0003F1FD
:100CA0005B0EC30075E65AF80839534540F0DA8008
:100CB00010F0030F00F1FF30F5D17B6823EA0C033D
:100CC0007B604FEA4C0C9C453FF6E2AEBCF1000F56
:100CD00004D1DDE64FEA4C0C09F104091CEA030FCC
:100CE000F8D04846ADE6604B186808EB000C0BF1F5
:100CF000FF31C3F800C0106801306FD004EB090267
:100D0000AAEB020262441A601AF00702CDE900233E
:100D100040D0C2F108029244D04408EA01005A448B
:100D2000121A02EA010B5946304600F0ABF8421C99
:100D3000019B6FD0A0EB0A0000EB0B081868C7F806
:100D400008A048F001025844BC42CAF804201860C8
:100D50003FF4E1AEB9F10F0F43D96168A9F10C027C
:100D600022F0070201F00101114361604FF0050C10
:100D7000A1180F2AC1E901CC54D8DAF80420CAE638
:100D800092104FF0010C0CFA02F24EEA020EC7F874
:100D900004E011E70AEB08020A40ABEB020202EAA8
:100DA000010B5946304600F06DF8431C019BC1D140
:100DB000DDF800B0C2E7542A17D84FEA1C3202F11E
:100DC0006F03DB006E32E8E6B3F5AA7F17D8EB0BB2
:100DD00003F1780003F1770EC300DAE5C2F800A052
:100DE00092E70123CAF80430A8E6B2F5AA7F24D816
:100DF0004FEADC3202F17803DB007732CDE640F2D5
:100E00005452934224D8AB0C03F17D0003F17C0EC5
:100E1000C300BEE5009A083A9044A8EB0A084FF0D8
:100E2000000B8BE7304604F108010093FFF770FCDC
:100E3000009BD7F808A018689FE740F254539A42E5
:100E40000CD84FEA9C4202F17D03DB007C32A4E621
:100E50004FF47E737F204FF07E0E9AE54FF47E7341
:100E60007E229AE67B682CE7040DFE1F0148FFF7FF
:100E7000DFBB00BFF80CFE1F0148FFF7DBBB00BF64
:100E8000F80CFE1F38B5074D0022044608462A60BC
:100E900011F084F8431C00D038BD2B68002BFBD028
:100EA000236038BDF40CFE1F38B5074D074C2C1BD2
:100EB000A41005D0013C55F8043D9847002CF9D109
:100EC000BDE8384012F030B9840BFE1F800BFE1FC6
:100ED000082802D14FF48050704708B500F046F85A
:100EE000162303604FF0FF3008BD00BF2DE9F84323
:100EF0001B4D0646286898460F469146FFF798FB1B
:100F0000184B1C681CB3286865681F2D22DC4EB97D
:100F10006B1C0235636044F82570FFF78BFB0020E3
:100F2000BDE8F88304EB85010123C1F88890D4F86B
:100F30008821AB401A43022EC4F88821C1F80881E9
:100F4000E6D1D4F88C211A43C4F88C21E0E7064C92
:100F50001C60D8E7FFF76EFB4FF0FF30E0E700BF03
:100F60002801FE1F000DFE1F380DFE1F014B1868E3
:100F7000704700BF0000FE1F80B584B002AF0023A1
:100F8000FB710CF0A1FF0346FB7101F0F5FC034679
:100F9000FB710CF0D1FF0346FB7101F089FD0346A4
:100FA000FB7180230093002300220C490C4801F0C0
:100FB00005FD00F075F88023009304230022094901
:100FC000094801F0FBFC00F05DF90346FB7101F0FC
:100FD000EDFC0346FB7100BFFDE700BF31100000D0
:100FE00034310100ED0F00004031010080B500AF49
:100FF000012001F031FD064800F07EF8002001F0EC
:101000002BFD4FF4FA7001F011FD00BFF0E700BFB7
:101010007005FE1F80B500AF72B600BF034B4FF6E0
:10102000FF721A8000F004F800BF80BD4005FE1F6B
:1010300080B500AF194B1B88002B0DD0012140F269
:101040000D700CF065FF642001F0F0FC002140F20F
:101050000D700CF05DFFEDE7012140F20D700CF01A
:1010600057FFC82001F0E2FC002140F20D700CF0A7
:101070004FFFA02001F0DAFC012140F20D700CF0CE
:1010800047FFC82001F0D2FC002140F20D700CF0A7
:101090003FFF4FF4167001F0C9FCCBE74005FE1F7F
:1010A00080B584B002AF0023FB710FE0FA790E49DE
:1010B00013469B0013449B000B4408331A690092AB
:1010C0000FCB00F0D1F8FB790133FB71FB79022BD8
:1010D000ECD9054B054A9A64034B054A5A6501232E
:1010E00018460837BD4680BD1806FE1FA47045414E
:1010F000B81E6342FFFFFFFFB0B582B000AF78605B
:10110000554BD3F8BC305549184611F0B9FA03468F
:101110001A46514BC3F8BC204F4BD3F8C030184689
:1011200011F000FA04460D464B4BD3F8C030184678
:1011300011F0F8F940A3D3E9002310F065FF02464F
:101140000B46104619463EA3D3E9002311F08CF854
:1011500002460B462046294611F086F802460B4609
:101160001046194611F036FA03463B4AC2F8C03021
:10117000394BD3F8C430184611F0D4F904460D4663
:10118000354BD3F8C430184611F0CCF94FF00002BB
:10119000334B10F039FF02460B461046194628A380
:1011A000D3E9002311F060F802460B462046294699
:1011B00011F05AF802460B461046194611F00AFA89
:1011C0000346254AC2F8C430234BD3F8C83018462A
:1011D00011F0A8F904460D461F4BD3F8C830184645
:1011E00011F0A0F918A3D3E9002310F00DFF024677
:1011F0000B461046194616A3D3E9002311F034F824
:1012000002460B462046294611F02EF802460B46B0
:101210001046194611F0DEF903460F4AC2F8C830ED
:10122000A0221049786811F0CFFB00BF0837BD46F7
:10123000B0BD00BFAFF30080666666666666E63FD7
:10124000000000C0CCCCEC3F333333333333D33FD7
:10125000000000A0ED7CBF3F1806FE1F08AC7C3FDD
:101260000000E03F5C06FE1F84B090B400AF07F1C1
:10127000080484E80F0001231846BD4690BC04B062
:101280007047FFFF80B582B002AF164B164A0021AF
:10129000164801F0E1FA03461A46154B83F86C2311
:1012A000134B93F96C33002B01D0002316E0104B45
:1012B0000F4AC3F878230E4B0E4AC3F874234FF439
:1012C0002073009301230C4A0C490D4801F076FB72
:1012D00003461A46064B83F8842301231846BD466D
:1012E00080BD00BF140BFE1F040BFE1FC809FE1FAC
:1012F000BC07FE1FC008FE1F2C0BFE1FED2A0000BE
:101300004C31010080B582B000AF0346FB800B4A30
:10131000FB88A2F80832094B0022A3F80A220848E9
:1013200001F0CBFA03461A46044B83F86C23034BB7
:10133000B3F80A3218460837BD4680BDBC07FE1F09
:10134000C809FE1F80B584B000AFF8607A603B60CA
:101350000B467B81154BB3F808327A899A4202D941
:101360004FF0FF331EE07B891A461049F86811F0F0
:101370002BFB0E4BB3F808227B89D31A9AB20B4B86
:10138000A3F80822094BB3F80832002B09D07B8957
:10139000064A1344054AB2F808221946034811F0D8
:1013A000F9FA7B8918461037BD4680BDBC07FE1F81
:1013B00080B584B000AFF8607A603B600B467B81FB
:1013C0007B891A46F968074811F0FEFA064A7B89BC
:1013D000A2F80A32044BB3F80A3218461037BD4659
:1013E00080BD00BFC008FE1FBC07FE1F90B488B0C0
:1013F00000AFBA601A460346FB810B46BB81134619
:10140000FB71BB89FB830023FB760223BB760023A1
:101410003B837CE03A8B434913465B0013449B00BB
:101420000B441B88FA899A426ED10023BB763B8B12
:10143000BB8365E0FA8BBB899A4221D0BA8B3949CC
:1014400013465B0013449B000B441B881846BB8B60
:101450005A1E344913465B0013449B000B441B88FF
:101460001C46BB8B5A1E2F4913465B0013449B003E
:101470000B4402331B782344984201D002234CE0F2
:10148000BA8B284913465B0013449B000B4403337B
:101490001A78FB791340DBB2002B2CD00023FB75AC
:1014A00019E0BA8B1F4913465B0013449B000B44A1
:1014B00004331A68FB7D5B001A44FB7E591CF976E5
:1014C0005B00B9680B4412881A80FB8B013BFB83DD
:1014D000FB7D0133FB75BA8B124913465B00134445
:1014E0009B000B4402331B78FA7D9A4205D2FB8B9A
:1014F000002BD6D101E002230FE0BB8B0133BB836D
:10150000FB8B002B96D106E03B8B01333B833B8B5F
:101510000F2B7FF67FAF97F91A3018462037BD465C
:1015200090BC7047FC06FE1F80B584B000AFBA6067
:101530001A460346FB810B46BB811346FB71B989F2
:10154000F8890223BA68FFF751FF0346184610379F
:10155000BD4680BD80B584B000AFBA601A46034670
:10156000FB810B46BB811346FB71B989F8890123C6
:10157000BA68FFF73BFF034618461037BD4680BDEB
:1015800080B487B000AF7B600346FB810B46BB8114
:101590001346FB720223FB750023BB8228E0BA8A44
:1015A000194913465B0013449B000B441B88FA89BE
:1015B0009A421AD1BA8A144913465B0013449B001D
:1015C0000B4403331B7803F00403002B14D0BA8AB6
:1015D0000D4913465B0013449B000B4404331B6806
:1015E000BA891A800023FB7506E0BB8A0133BB82EF
:1015F000BB8A0F2BD3D900E000BF97F917301846EC
:101600001C37BD4680BC7047FC06FE1F90B488B0F6
:1016100000AFBA601A460346FB810B46BB811346F6
:10162000FB71BB89FB830023FB760223BB7600237F
:101630003B8367E03A8B564913465B0013449B009B
:101640000B441B88FA899A4259D13B8BBB8352E0E9
:101650000023BB76FA8BBB899A4221D0BA8B4C49C6
:1016600013465B0013449B000B441B881846BB8B3E
:101670005A1E474913465B0013449B000B441B88CA
:101680001C46BB8B5A1E424913465B0013449B0009
:101690000B4402331B782344984201D0022371E0AB
:1016A000BA8B3B4913465B0013449B000B44033346
:1016B0001B7803F00403002B18D00023FB7505E012
:1016C000FB8B013BFB83FB7D0133FB75BA8B304900
:1016D00013465B0013449B000B4402331B78FA7DD6
:1016E0009A4205D2FB8B002BEAD101E0022349E0AC
:1016F000BB8B0133BB83FB8B002BA9D105E03B8B5C
:1017000001333B833B8B0F2B94D997F91A30002B75
:1017100036D13B8BBB83BB89FB832EE00023BB759B
:1017200019E0FB7E5A1CFA765B00BA68D118BA8BB6
:10173000174813465B0013449B00034404331A68A4
:10174000BB7D5B0013440A881A80FB8B013BFB8343
:10175000BB7D0133BB75BA8B0D4913465B00134447
:101760009B000B4402331B78BA7D9A4202D2FB8B5A
:10177000002BD6D1BB8B0133BB83FB8B002BCDD190
:1017800097F91A3018462037BD4690BC704700BF05
:10179000FC06FE1F80B485B000AF78607B68B3F8AC
:1017A00004311A467B689B5CFB737B68B3F8043199
:1017B00001339AB27B68A3F80421FB7B18461437E7
:1017C000BD4680BC704780B483B000AF78600B46E4
:1017D000FB707B68B3F8043119467B68FA785A5479
:1017E0007B68B3F8043101339AB27B68A3F8042113
:1017F00000BF0C37BD4680BC704780B483B000AFDB
:1018000078607B68B3F8043101339AB27B68A3F83F
:10181000042100BF0C37BD4680BC704780B485B042
:1018200000AF78607B68B3F804311A467B689B5C34
:101830001BB21B021AB27B68B3F80431013379681A
:10184000CB5C1BB213431BB2FB817B68B3F8043142
:1018500002339AB27B68A3F80421FB891846143737
:10186000BD4680BC704780B483B000AF78600B4643
:101870007B807B881B0A99B27B68B3F804311A46D7
:10188000C9B27B6899547B68B3F8043101337A8814
:10189000D1B27A68D1547B68B3F8043102339AB27A
:1018A0007B68A3F8042100BF0C37BD4680BC70479D
:1018B00080B483B000AF78607B680022A3F8042175
:1018C00000BF0C37BD4680BC704780B582B000AF0A
:1018D00078607868FFF7ECFF7B68002283F80621C8
:1018E0007B68002283F807217B680022A3F8082187
:1018F0007B68002283F80A217B68002283F80B2191
:1019000000BF0837BD4680BD90B583B000AF78609A
:1019100039607B68002B02D14FF0FF3334E04FF485
:101920009E7200217868FEF731FE7B684FF0FF322F
:10193000C3F820217B684FF0FF32C3F824213B68B5
:10194000002B02D14FF0FF331EE03B681B78012BC8
:1019500006D03B681B78022B02D04FF0FF3313E018
:101960003B685B68002B03D03B689B68002B02D16F
:101970004FF0FF3308E07B683A6803F59474134630
:101980000FCB84E80F00002318460C37BD4690BDEE
:1019900080B487B000AF786039604FF6FF73FB8288
:1019A00000233B6126E07A683B6913441B781A46A2
:1019B000FB8A5340FB820823FB6015E0FB8A03F09F
:1019C0000103002B0AD0FB8A5B08FB82FB8A83F4AD
:1019D000BF4383F07E03DB43FB8202E0FB8A5B08AC
:1019E000FB82FB68013BFB60FB68002BE6D13B6997
:1019F00001333B613A693B689A42D4D3FB8A5BBAB4
:101A00009BB218461C37BD4680BC704790B585B068
:101A100000AF78600B467B807B68D3F82C417B68F5
:101A20007A68B2F8042198187B68D3F820217B6883
:101A3000D3F834317988A047F8607B88FA689A42F5
:101A400001D100230EE07B88FA689A4208DAFB682D
:101A5000002B02DA6FF0030304E06FF0020301E0F1
:101A60006FF0030318461437BD4690BD90B585B09E
:101A700000AF78600B467B807B68D3F83041786894
:101A80007B68D3F820217B68D3F834317988A0476C
:101A9000F8607B88FA689A4201D100230EE07B88C7
:101AA000FA689A4208DAFB68002B02DA6FF0030347
:101AB00004E06FF0020301E06FF0030318461437EF
:101AC000BD4690BD80B584B000AF78607B6893F868
:101AD0002831012B22D17A687B68B3F8043119468A
:101AE0001046FFF755FF0346FB8102217868FFF798
:101AF0008DFF03467B7397F90D30002B02D097F9C9
:101B00000D300CE07868FFF789FE03467B817A8907
:101B1000FB899A4202D06FF0040300E000231846CC
:101B20001037BD4680BD80B586B000AF78603960A3
:101B30007B68D3F820317B617B68D3F824217B68F4
:101B4000C3F820217868FFF7C0FE3B6800221A70B6
:101B50007B6893F82831012B31D101217868FFF798
:101B600055FF03467B737B687A69C3F8202197F998
:101B70000D30002B02D097F90D307BE03B6801223D
:101B80001A707868FFF706FE03461A467B6883F8EA
:101B9000062101217868FFF739FF03467B7397F927
:101BA0000D30002B02D097F90D3063E07868FFF715
:101BB000F1FD03461A467B6883F8072159E07B68EC
:101BC00093F82831022B54D101217868FFF71EFFCA
:101BD0000346FB747B687A69C3F8202197F91330B8
:101BE000002B02D097F9133044E03B6801221A70B1
:101BF0007868FFF702FE07217868FFF707FF0346C2
:101C0000FB7497F91330002B02D097F9133031E0B1
:101C10007868FFF74DFE7868FFF700FE03461A4626
:101C20007B68A3F808217868FFF7F8FD03463B823C
:101C30007868FFF7F3FD0346FB817868FFF7AAFD9C
:101C400003461A467B6883F806217868FFF7A2FDF1
:101C500003461A467B6883F807213B8A002B02D093
:101C60006FF0050306E0FB89FF2B02D96FF0050337
:101C700000E0002318461837BD4680BD80B582B00D
:101C800000AF78600B467B807868FFF711FE7B68B9
:101C900093F82831012B07D17B6893F80631194658
:101CA0007868FFF790FD1DE07B6893F82831022BE0
:101CB00018D17B68B3F8083119467868FFF7D3FD6F
:101CC00000217868FFF7CFFD7B8802339BB219466D
:101CD0007868FFF7C8FD7B6893F806311946786885
:101CE000FFF771FD7B6893F8073119467868FFF7B5
:101CF0006AFD00BF0837BD4680BD80B584B000AF27
:101D000078607B6893F82831012B0ED17A687B6864
:101D1000B3F8043119461046FFF73AFE0346FB813B
:101D2000FB8919467868FFF79EFD7B68B3F804319C
:101D300019467868FFF79AFE03467B7397F90D30D2
:101D400018461037BD4680BD80B584B000AF7860BE
:101D5000396039687868FFF7E6FE0346FB7397F948
:101D60000F30002B02D097F90F3021E07B6893F8F9
:101D70002831012B1BD17B6893F806310022934256
:101D800004D17B68012283F80A2110E07B6893F874
:101D900006217B6893F838319A4204D07B6801228F
:101DA00083F80B2103E07B68002283F80B210023DA
:101DB00018461037BD4680BD80B582B000AF786050
:101DC0000B467B807B8819467868FFF757FF00BF7A
:101DD0000837BD4680BD80B582B000AF78600B4645
:101DE000FB707B6893F80731803BDAB27B6883F83D
:101DF000072101217868FFF741FFFB7819467868D1
:101E0000FFF7E1FC7868FFF778FF034618460837CC
:101E1000BD4680BD80B584B000AF78607B68B3F804
:101E20000831FB817B6893F806317B737B6893F8FC
:101E300007313B7307F1090319467868FFF773FE12
:101E40000346FB7297F90B30002B02D097F90B3049
:101E500057E07B6893F82831022B08D17B68B3F8F0
:101E60000831FA899A4202D06FF0050349E07B6895
:101E700093F82831012B08D17B6893F806317A7BDF
:101E80009A4202D06FF006033BE07B6893F807317B
:101E90003A7B9A4234D07B6893F80731A3F18002F1
:101EA0003B7B9A4229D101217868FFF7AFFD0346B9
:101EB000FB7297F90B30002B02D097F90B3020E022
:101EC0007868FFF767FC0346BB727868FFF7FAFD96
:101ED0000346FB7297F90B30002B02D097F90B30B9
:101EE0000FE0BB7A002B02D0BB7A042B02D96FF033
:101EF000010306E097F90A3003E06FF0010300E008
:101F0000002318461037BD4680BD80B586B000AFAF
:101F1000F8600B467A607B81F868FFF77BFF034629
:101F2000FB7497F91330002B02D097F9133050E06F
:101F30000121F868FFF76AFD0346FB7497F9133037
:101F4000002B02D097F9133043E0F868FFF722FC2A
:101F50000346BB74BB7C9BB21946F868FFF756FD7D
:101F60000346FB7497F91330002B02D097F9133016
:101F70002FE000237B6110E0F868FFF74FFC034679
:101F80003B827B68002B05D07B695B007A68134439
:101F90003A8A1A807B6901337B61BB7C5B08DBB2C8
:101FA0001A467B699342E7DBF868FFF78BFD03462F
:101FB000FB7497F91330002B02D097F9133008E027
:101FC000BA7C7B895B009A4202D06FF0010300E08B
:101FD000002318461837BD4680BD80B584B000AFD9
:101FE00078600B467B8013463B807868FFF712FFD2
:101FF0000346FB7397F90F30002B02D097F90F308F
:1020000031E004217868FFF701FD0346FB7397F97F
:102010000F30002B02D097F90F3024E07868FFF7DB
:10202000FDFB0346BB817868FFF7F8FB03467B8125
:102030007868FFF747FD0346FB7397F90F30002BD5
:1020400002D097F90F300EE0BA897B889A4202D00D
:102050006FF0010307E07A893B889A4202D06FF063
:10206000010300E0002318461037BD4680BD80B54F
:1020700084B000AF78600B467B8013463B80786865
:10208000FFF7C8FE0346FB7397F90F30002B02D011
:1020900097F90F3031E004217868FFF7B7FC034669
:1020A000FB7397F90F30002B02D097F90F3024E023
:1020B0007868FFF7B3FB0346BB817868FFF7AEFB98
:1020C00003467B817868FFF7FDFC0346FB7397F9B5
:1020D0000F30002B02D097F90F300EE0BA897B88C1
:1020E0009A4202D06FF0010307E07A893B889A4256
:1020F00002D06FF0010300E0002318461037BD4600
:1021000080BDF0B5C7B002AF07F58873A3F586733D
:10211000186007F58873A3F58873196007F588734D
:10212000A3F5867304211868FFF770FC034687F84F
:102130000B3197F90B31002B02D097F90B3119E1D4
:1021400007F58873A3F586731868FFF767FB0346E6
:10215000A7F8083107F58873A3F586731868FFF7A9
:102160005DFB0346A7F8063107F58873A3F5867370
:102170001868FFF7A7FC034687F80B3197F90B3176
:10218000002B02D097F90B31F4E007F58873A3F523
:1021900086731B6893F80B3183F00103DBB2002BCD
:1021A00000F0DB80B7F80631002B03D0B7F806311A
:1021B0007D2B09D907F58873A3F586730321186869
:1021C000FFF709FE0346D5E0B7F80821B7F8063156
:1021D0001344B3F5803F09D907F58873A3F58673D7
:1021E00002211868FFF7F7FD0346C3E007F588737F
:1021F000A3F588731B68002B00F0A58007F5887392
:10220000A3F584731846FA231A460021FEF7BEF997
:1022100007F58873A3F586731B6893F8066107F5C5
:102220008873A3F586731B68D3F8342107F108057A
:10223000B7F80611B7F8080107F58873A3F5887396
:1022400000921C6833462A46A047034687F80B31A4
:1022500097F90B31002B1DD097F90B31002B0FDDB7
:1022600097F90B31042B0BDC97F80B2107F58873DA
:10227000A3F5867311461868FFF7ADFD034679E0B4
:1022800007F58873A3F5867304211868FFF7A3FD8B
:1022900003466FE007F58873A3F586731B6893F810
:1022A0000A3183F00103DBB2002B62D0B7F80631AC
:1022B000DBB25B0087F8053197F805319BB201333B
:1022C0009AB207F58873A3F5867311461868FFF76D
:1022D00073FD97F8052107F58873A3F586731146FA
:1022E0001868FFF770FA0023C7F80C3114E007F5FF
:1022F0008873A3F58473D7F80C2133F8122007F5FF
:102300008873A3F5867311461868FFF7ACFAD7F8FF
:102310000C310133C7F80C31B7F80631D7F80C216E
:102320009A42E4DB07F58873A3F586731868FFF714
:10233000E4FC034687F80B3197F90B31002B18D0DA
:1023400097F90B3116E007F58873A3F58673012121
:102350001868FFF740FD03460CE0B7F8061107F5D3
:102360008873A3F5867300221868FFF7CEFD034635
:1023700000E00023184607F58A77BD46F0BD80B51A
:1023800082B000AF78607B68D3F80C31194678686A
:10239000FFF7B7FE034618460837BD4680BD80B537
:1023A00082B000AF78607B68D3F810311946786846
:1023B000FFF7A7FE034618460837BD4680BD90B517
:1023C00085B000AF786004217868FFF71FFB0346F3
:1023D000FB7397F90F30002B02D097F90F307AE09A
:1023E0007868FFF71BFA0346BB817868FFF716FA97
:1023F00003467B817868FFF765FB0346FB7397F91B
:102400000F30002B02D097F90F3064E07B6893F80F
:102410000B3183F00103DBB2002B53D07B68D3F880
:102420001431002B48D07B68D3F814417B6893F8B3
:1024300006217B68D3F834317989B889A0470346EF
:10244000FB7397F90F30002B14D097F90F30002B46
:102450000ADD97F90F30042B06DCFB7B1946786800
:10246000FFF7B9FC034636E004217868FFF7B3FCB8
:10247000034630E07B6893F80A3183F00103DBB256
:10248000002B27D004217868FFF796FCBB891946FA
:102490007868FFF7E8F97B8919467868FFF7E3F970
:1024A0007868FFF72AFC0346FB7397F90F30002B7F
:1024B00010D097F90F300EE001217868FFF78BFC00
:1024C000034608E07A89BB8919467868FFF785FDDD
:1024D000034600E0002318461437BD4690BDB0B552
:1024E000C6B002AF07F58873A3F58673186007F5C9
:1024F0008873A3F5867305211868FFF787FA0346EA
:1025000087F80B3197F90B31002B02D097F90B317B
:1025100053E107F58873A3F586731868FFF77EF912
:102520000346A7F8083107F58873A3F58673186882
:10253000FFF774F90346A7F8063107F58873A3F58A
:1025400086731868FFF726F9034687F8053197F870
:1025500005319AB207F58873A3F58673114618689A
:10256000FFF754FA034687F80B3197F90B31002B2C
:1025700002D097F90B3120E10023C7F80C3115E0A8
:1025800007F58873A3F586731868FFF747F90346C4
:10259000194607F58873A3F58273D7F80C2123F841
:1025A0001210D7F80C310133C7F80C3197F8053108
:1025B0005B08DBB21A46D7F80C319342E0DB07F533
:1025C0008873A3F586731868FFF77CFA034687F8CB
:1025D0000B3197F90B31002B02D097F90B31ECE05E
:1025E00007F58873A3F586731B6893F80B3183F0A6
:1025F0000103DBB2002B00F0D280B7F80631002BCC
:1026000003D0B7F806317B2B09D907F58873A3F5FA
:10261000867303211868FFF7DEFB0346CDE0B7F8A9
:102620000821B7F806311344B3F5803F09D907F5FF
:102630008873A3F5867302211868FFF7CCFB034665
:10264000BBE097F80531002B09D107F58873A3F596
:10265000867303211868FFF7BEFB0346ADE097F8C9
:102660000521B7F806315B009A4209D007F5887357
:10267000A3F5867303211868FFF7ADFB03469CE0C2
:1026800007F58873A3F586731B68D3F81831002B00
:102690007BD007F58873A3F586731B68D3F81841C0
:1026A00007F58873A3F586731B6893F8065107F541
:1026B0008873A3F586731B68D3F8343107F10C02D5
:1026C000B7F80611B7F8080100932B46A047034658
:1026D00087F80B3197F90B31002B1DD097F90B318F
:1026E000002B0FDD97F90B31042B0BDC97F80B2136
:1026F00007F58873A3F5867311461868FFF76BFB1F
:1027000003465AE007F58873A3F586730421186819
:10271000FFF761FB034650E007F58873A3F5867366
:102720001B6893F80A3183F00103DBB2002B43D01E
:1027300007F58873A3F5867304211868FFF73CFB3F
:10274000B7F8082107F58873A3F586731146186852
:10275000FFF789F8B7F8062107F58873A3F58673A4
:1027600011461868FFF77FF807F58873A3F586739D
:102770001868FFF7C2FA034687F80B3197F90B3157
:10278000002B19D097F90B3117E007F58873A3F5E3
:10279000867301211868FFF71EFB03460DE0B7F8AA
:1027A0000621B7F8081107F58873A3F58673186832
:1027B000FFF75DFC034600E00023184607F5887725
:1027C000BD46B0BD80B584B000AF78607B6893F83B
:1027D0000731033B0D2B37D801A252F823F000BF7D
:1027E0001928000025280000492800003128000091
:1027F0004928000049280000492800004928000015
:102800004928000049280000492800004928000004
:10281000492800003D2800007868FFF7B0FD034616
:10282000FB7313E07868FFF7BAFD0346FB730DE016
:102830007868FFF7C4FD0346FB7307E07868FFF78D
:102840004EFE0346FB7301E00123FB7397F90F3043
:1028500018461037BD4680BDB0B586B000AFF860F1
:102860007A603B600B46FB727B681B78012B05D1BD
:10287000FB7A002B02D14FF0FF331AE07968F86839
:10288000FFF742F80346FB7597F91730002B02D08B
:1028900097F917300DE0FB68FA7A83F83821FB6866
:1028A0003A6803F5867415460FCD0FC42B68236074
:1028B000002318461837BD46B0BD90B585B000AFAF
:1028C00078607868FFF701F80023BB7307F10E0307
:1028D00019467868FFF738FA0346FB7397F90F300B
:1028E000002B0FD0BB7B83F00103DBB2002B06D0A3
:1028F00097F90F3013F1030F01D1002331E097F95D
:102900000F302EE07868FFF75DFF0346FB7397F901
:102910000F30002B24D097F90F30002B03DD97F9EF
:102920000F30042B1CDD7B6893F82831012B14D168
:1029300097F90F3013F1030F0FD07B6893F80B3129
:10294000002B0AD07B68D3F82C4178687B68D3F8D9
:10295000343100224FF48271A04797F90F3000E024
:10296000002318461437BD4690BD80B400AF00BFA9
:10297000BD4680BC7047FFFF80B483B000AF00232A
:10298000FB7107E0FB79084AFF2102F83310FB795D
:102990000133FB71FB79132BF4D9012318460C3753
:1029A000BD4680BC704700BFC80EFE1F80B500AF9B
:1029B00001F0D8FC0123184680BDFFFF80B588B028
:1029C00002AFF860B9607A60FB70FF23FB75154BAE
:1029D0001B78132B20D8B868FB78124A1278D200E3
:1029E00011490A440432019200937B683A6AF968FB
:1029F00001F028FB0346012B0ED10A4B1978094B35
:102A00001B781A4649B2084B03F83210054B1B7865
:102A10000133DAB2034B1A7097F91730184618379A
:102A2000BD4680BD680FFE1FC80EFE1F80B582B078
:102A300000AF78607B684FF47A7202FB03F3054ABB
:102A4000A2FB03239B09184601F05CFC00BF08377A
:102A5000BD4680BDD34D621080B582B000AF034645
:102A6000FB71FB79002B02D00EF052FC01E00EF05E
:102A70007FFC00BF0837BD4680BD80B500AFFFF7C3
:102A800074FF00BF80BD80B582B000AF7860396050
:102A9000FEF7C0FA00BF0837BD4680BD80B483B0E2
:102AA00000AF0346FB7100BF0C37BD4680BC7047CA
:102AB00080B582B002AF084B0093084B084A094921
:102AC000094804F02FFA0346012B0CBF0123002311
:102AD000DBB21846BD4680BD6C3101006831010093
:102AE00064310100603101005C31010080B59AB0B1
:102AF00002AF78607B687B654FF0FF33BB644FF0BB
:102B0000FF337B6401233B654FF0FF33FB650023FC
:102B10003B6407F1280300221A605A609A60DA6069
:102B20001A615A6107F1100300221A605A609A6014
:102B3000DA601A615A611823FB600023BB65002329
:102B4000A7F84E3005E006220121022006F023FB03
:102B5000F865FB6DB3F1FF3FF5D007F148030422A0
:102B6000009200220021F86D06F096FF07F1440361
:102B70000422009201220021F86D06F08DFF7B6D8A
:102B80001B881BB21B021AB27B6D1B881B0A9BB2EF
:102B90001BB213431BB29BB27B820023BB6107F1C4
:102BA000100318221946F86D06F089FB396DF86D8F
:102BB00007F051FC2E4B1B785A1CD1B22C4A1170D5
:102BC00019462C4A07F1400342F8213009E007F189
:102BD0000C0207F128031946F86D07F041F9034686
:102BE0003B643B6C002BF2D03B6CB3F1FF3FEED06B
:102BF0001DE0386C7B6D99687B6D9B891A460023BC
:102C000007F08EFAB865BB6D002B10DD7B6D1B697C
:102C1000BA6D92B2104698470346A7F84E30386C0A
:102C20007B6D5968B7F84E20002307F0E2FBBB6DBF
:102C3000002BDEDA3B6C0221184607F07DFC02E037
:102C4000322001F05FFB386C7B6D99687B6D9B894E
:102C50001A46002307F064FA0346002BF0DA3B6CB7
:102C6000184606F091FC00233B640023BB65B8E7DF
:102C7000780FFE1F6C0FFE1F80B584B000AF0346B7
:102C8000FB71104AFB791370FB791846FFF706FFBA
:102C9000FB79012B12D10023FB730AE0FB7B0A4A6C
:102CA00052F823301B68184607F070FEFB7B013397
:102CB000FB73064B1B78FA7B9A42EFD300BF1037A9
:102CC000BD4680BD690FFE1F6C0FFE1F780FFE1FF3
:102CD00080B588B000AF786000237B6101F088FB8D
:102CE000544B1B68002B01D100F0F8F87B68002BD7
:102CF00022D00823DB437A689A421BD808227B68DB
:102D000013447B607B6803F00703002B14D07B68BF
:102D100003F00703C3F108033B613B69DB437A68B7
:102D20009A4204D87A683B6913447B6004E000232C
:102D30007B6001E000237B607B68002B69DB7B68A4
:102D4000002B66D03C4B1B687A689A4261D83B4B9B
:102D5000BB613A4B1B68FB6104E0FB69BB61FB692B
:102D60001B68FB61FB695B687A689A4203D9FB695F
:102D70001B68002BF1D12F4B1B68FA699A4248D08F
:102D8000BB691B68082213447B61FB691A68BB6935
:102D90001A60FB695A687B68D21A08235B009A4262
:102DA00018D9FA697B681344FB60FB6803F00703DA
:102DB000002B03D072B600BF00BFFDE7FB695A6865
:102DC0007B68D21AFB685A60FB697A685A60F868B7
:102DD00000F0E0F8184B1A68FB695B68D31A164AD2
:102DE0001360154B1A68164B1B689A4203D2124B9C
:102DF0001B68134A1360FB695B6843F00042FB6980
:102E00005A60FB6900221A600E4B1B6801330D4AA1
:102E1000136001F0FBFA7B6903F00703002B03D07A
:102E200072B600BF00BFFDE77B6918462037BD467C
:102E300080BD00BF848FFF1F888FFF1F7C8FFF1F07
:102E40008C8FFF1F908FFF1F80B584B000AF78601C
:102E50007B68FB607B68002B37D008235B42FA68F5
:102E60001344FB60FB68BB60BB685B68002B03DB43
:102E700072B600BF00BFFDE7BB681B68002B03D024
:102E800072B600BF00BFFDE7BB685B68002B1CDAB1
:102E9000BB681B68002B18D1BB685B6823F000423D
:102EA000BB685A6001F0A4FABB685A68094B1B68FA
:102EB0001344084A1360B86800F06CF8064B1B68AE
:102EC0000133054A136001F0A1FA00BF1037BD4677
:102ED00080BD00BF888FFF1F948FFF1F80B485B017
:102EE00000AF4FF4C033BB60254BFB60FB6803F0C1
:102EF0000703002B0CD0FB680733FB60FB6823F053
:102F00000703FB60BA68FB68D31A1D4A1344BB6011
:102F1000FB687B601B4A7B6813601A4B00225A6077
:102F20007A68BB681344FB600822FB689B1AFB604D
:102F3000FB6823F00703FB60FB68134A1360124B26
:102F40001B6800225A60104B1B6800221A607B68C5
:102F50003B603B68FA68D21A3B685A600A4B1A68B1
:102F60003B681A603B685B68084A13603B685B68B3
:102F7000074A136000BF1437BD4680BC704700BFCE
:102F80007C0FFE1F7C8FFF1F848FFF1F8C8FFF1F06
:102F9000888FFF1F80B485B000AF7860274BFB603F
:102FA00002E0FB681B68FB60FB681B687A689A425A
:102FB000F7D8FB68BB60FB685B68BA6813447A6843
:102FC0009A4208D1FB685A687B685B681A44FB68C0
:102FD0005A60FB687B607B68BB607B685B68BA6833
:102FE0001A44FB681B689A4218D1FB681A68144B94
:102FF0001B689A420DD07B685A68FB681B685B6847
:103000001A447B685A60FB681B681A687B681A6000
:1030100008E00B4B1A687B681A6003E0FB681A68CB
:103020007B681A60FA687B689A4202D0FB687A680B
:103030001A6000BF1437BD4680BC70477C8FFF1FED
:10304000848FFF1F80B582B000AF1820FFF740FECD
:1030500078607B68002B07D07B6800221A607B6851
:103060000433184600F088F97B6818460837BD46D7
:1030700080BDFFFF80B58CB000AFF860B9607A60AA
:103080003B60FB687B620023BB6200233B62FB6802
:10309000002B03D172B600BF00BFFDE7BB68B3F1E0
:1030A000807F03D372B600BF00BFFDE7BB68002B73
:1030B00003D172B600BF00BFFDE701F0ABFF0346CE
:1030C000002B02D1BB6B002B01D1012300E00023B8
:1030D000002B03D172B600BF00BFFDE701F088F9F5
:1030E0007B6A1B68FB613A68B968F86900F023F9EC
:1030F000B861BB69002B0ED0FB69FB620023BB6388
:103100007B68002B28D07B6A1A68BB68DB431A40B7
:103110007B6A1A6020E0BB6B002B04D1FB69FB6269
:1031200001233B6218E07B68002B03D0BB6A43F0AD
:103130008073BB623B68002B03D0BB6A43F08063A3
:10314000BB627B6A181DBA68BB6A1343BA6B194627
:1031500001F0FCFB0023FB6201F058F97861BB6BC6
:10316000002B33D07B69002B09D11B4B4FF08052D1
:103170005A60BFF34F8F00BFBFF36F8F00BF02F0E5
:103180001BF9F862FB6A03F00073002B1AD10EF0F2
:10319000BFF87B6A1B68FB623A68B968F86A00F09E
:1031A000CAF80346002B09D07B68002B06D07B6A47
:1031B0001A68BB68DB431A407B6A1A6001233B62D2
:1031C0000EF0D6F8FB6A23F07F43FB62FB6A1846D9
:1031D0003037BD4680BD00BF00ED00E080B58CB04B
:1031E00000AF786039600023BB627B683B620023DC
:1031F0007B627B68002B03D172B600BF00BFFDE786
:103200003B68B3F1807F03D372B600BF00BFFDE718
:103210003B6A0433FB61FB690833BB6101F0E8F8EA
:10322000FB69DB68FB623B6A1A683B681A433B6ACE
:103230001A603CE0FB6A5B687B61FB6A1B683B6170
:1032400000237B623B6903F07F43FB603B6923F013
:103250007F433B61FB6803F08063002B08D13B6A2E
:103260001A683B691340002B0BD001237B6208E0F6
:103270003B6A1A683B6913403A699A4201D10123BB
:103280007B627B6A002B10D0FB6803F08073002BFD
:1032900003D0BA6A3B691343BB623B6A1B6843F0C5
:1032A00000731946F86A01F0A7FC7B69FB62FA6AB1
:1032B000BB699A42BED13B6A1A68BB6ADB431A40BB
:1032C0003B6A1A6001F0A2F83B6A1B681846303767
:1032D000BD4680BD80B584B000AF78607B68FB6080
:1032E000FB68002B03D172B600BF00BFFDE7FB688F
:1032F0000433BB6001F07CF810E0BB68DA68BB689F
:1033000008339A4203D172B600BF00BFFDE7BB6825
:10331000DB684FF00071184601F06EFCBB681B685B
:10332000002BEAD101F072F8F868FFF78DFD00BFBD
:103330001037BD4680BD80B487B000AFF860B9607B
:103340007A6000237B617B68002B07D1FA68BB6839
:103350001340002B0AD001237B6107E0FA68BB68A9
:103360001340BA689A4201D101237B617B691846F8
:103370001C37BD4680BC704780B483B000AF786016
:103380007B6803F108027B685A607B684FF0FF326C
:103390009A607B6803F108027B68DA607B6803F15E
:1033A00008027B681A617B6800221A6000BF0C3734
:1033B000BD4680BC704780B483B000AF78607B6846
:1033C00000221A6100BF0C37BD4680BC704780B434
:1033D00085B000AF786039607B685B68FB603B68F4
:1033E000FA685A60FB689A683B689A60FB689B6859
:1033F0003A685A60FB683A689A603B687A681A6172
:103400007B681B685A1C7B681A6000BF1437BD4676
:1034100080BC704780B485B000AF786039603B688D
:103420001B68BB60BB68B3F1FF3F03D17B681B69BE
:10343000FB600CE07B680833FB6002E0FB685B68C4
:10344000FB60FB685B681B68BA689A42F6D2FB684F
:103450005A683B685A603B685B683A689A603B68A8
:10346000FA689A60FB683A685A603B687A681A6141
:103470007B681B685A1C7B681A6000BF1437BD4606
:1034800080BC704780B485B000AF78607B681B69F2
:10349000FB607B685B687A6892689A607B689B686F
:1034A0007A6852685A60FB685B687A689A4203D10E
:1034B0007B689A68FB685A607B6800221A61FB6827
:1034C0001B685A1EFB681A60FB681B681846143795
:1034D000BD4680BC7047FFFF80B584B000AF786008
:1034E00039600123FB607B68BB60BB68002B03D1A4
:1034F00072B600BF00BFFDE7BB68002B5ED0BB68A3
:10350000DB6B002B5AD0BB681A6CBB68DB6B0021ED
:10351000A3FB0223002B00D001210B46002B4DD131
:103520000DF0F6FEBB681A68BB68DB6BB968096C06
:1035300001FB03F31A44BB689A60BB6800229A63DC
:10354000BB681A68BB685A60BB681A68BB68DB6BEB
:10355000013BB968096C01FB03F31A44BB68DA60EC
:10356000BB68FF2283F84420BB68FF2283F8452014
:103570003B68002B15D1BB681B69002B1BD0BB68B7
:103580001033184601F068FA0346002B13D0124B93
:103590004FF080525A60BFF34F8F00BFBFF36F8F61
:1035A00009E0BB6810331846FFF7E6FEBB6824331A
:1035B0001846FFF7E1FE0DF0DBFE01E00023FB60A3
:1035C000FB68002B03D172B600BF00BFFDE7FB68AC
:1035D00018461037BD4680BD00ED00E080B58AB0CA
:1035E00002AFF860B9601346FB710023FB61FB6812
:1035F000002B2ED00021BA68FB68A3FB0223002B0E
:1036000000D001210B46002B23D1FB68BA6802FBD6
:1036100003F313F1490F1CD8FB68BA6802FB03F3EC
:10362000BB61BB6948331846FFF752FBF861FB6981
:10363000002B15D0FB697B617B6948337B61FA798C
:10364000FB69009313467A69B968F86800F00DF8D1
:1036500006E0FB69002B03D172B600BF00BFFDE797
:10366000FB6918462037BD4680BD80B584B000AFE9
:10367000F860B9607A60FB70BB68002B03D1BB694E
:10368000BA691A6002E0BB697A681A60BB69FA68B5
:10369000DA63BB69BA681A640121B869FFF71CFFD5
:1036A00000BF1037BD4680BD80B584B000AF7860E4
:1036B00039600023FB607B68002B10D03A687B6880
:1036C0009A420CD8022200217868FFF787FFF86041
:1036D000FB68002B0AD0FB683A689A6306E0FB6837
:1036E000002B03D172B600BF00BFFDE7FB68184690
:1036F0001037BD4680BDFFFF80B58AB000AFF860CF
:10370000B9607A603B6000237B62FB683B623B6A86
:10371000002B03D172B600BF00BFFDE7BB68002BD2
:1037200003D13B6A1B6C002B01D1012300E0002375
:10373000002B03D172B600BF00BFFDE73B68022B30
:1037400003D13B6ADB6B012B01D1012300E0002395
:10375000002B03D172B600BF00BFFDE701F05AFC99
:103760000346002B02D17B68002B01D1012300E02E
:103770000023002B03D172B600BF00BFFDE70DF0A0
:10378000C7FD3B6A9A6B3B6ADB6B9A4202D33B688C
:10379000022B2CD13A68B968386A00F098FAF861BF
:1037A0003B6A5B6A002B11D03B6A2433184601F058
:1037B00053F90346002B16D0424B4FF080525A600B
:1037C000BFF34F8F00BFBFF36F8F0CE0FB69002B7F
:1037D00009D03C4B4FF080525A60BFF34F8F00BF6F
:1037E000BFF36F8F00BF0DF0C3FD012366E07B6860
:1037F000002B03D10DF0BCFD00235FE07B6A002BA2
:1038000006D107F11403184601F0C8FA01237B62C0
:103810000DF0AEFD00F0ECFD0DF07AFD3B6A93F883
:1038200044305BB2B3F1FF3F03D13B6A002283F81F
:1038300044203B6A93F845305BB2B3F1FF3F03D1BC
:103840003B6A002283F845200DF092FD3A1D07F1F6
:1038500014031146184601F0B7FA0346002B25D190
:10386000386A00F02CFB0346002B19D03B6A10335A
:103870007A681146184601F04BF8386A00F0B7FA3A
:1038800000F0C4FD0346002B7FF479AF0D4B4FF0E1
:1038900080525A60BFF34F8F00BFBFF36F8F0CE0B1
:1038A000386A00F0A4FA00F0B1FD68E7386A00F069
:1038B0009EFA00F0ABFD002300E060E718462837D1
:1038C000BD4680BD00ED00E080B58AB000AFF86075
:1038D000B9607A6000237B62FB683B623B6A002B25
:1038E00003D172B600BF00BFFDE7BB68002B03D158
:1038F0003B6A1B6C002B01D1012300E00023002B4D
:1039000003D172B600BF00BFFDE701F083FB0346A1
:10391000002B02D17B68002B01D1012300E00023A2
:10392000002B03D172B600BF00BFFDE70DF0F0FC25
:103930003B6A9B6BFB61FB69002B21D0B968386A3D
:1039400000F02FFAFB695A1E3B6A9A633B6A1B69B7
:10395000002B11D03B6A1033184601F07DF8034666
:10396000002B09D03F4B4FF080525A60BFF34F8F6E
:1039700000BFBFF36F8F00BF0DF0FAFC01236CE0B6
:103980007B68002B03D10DF0F3FC002365E07B6A1C
:10399000002B06D107F11403184601F0FFF90123AB
:1039A0007B620DF0E5FC00F023FD0DF0B1FC3B6AFD
:1039B00093F844305BB2B3F1FF3F03D13B6A00227E
:1039C00083F844203B6A93F845305BB2B3F1FF3F84
:1039D00003D13B6A002283F845200DF0C9FC3A1D53
:1039E00007F114031146184601F0EEF90346002BC7
:1039F00024D1386A00F04DFA0346002B18D03B6AF8
:103A000024337A681146184600F082FF386A00F0C5
:103A1000EEF900F0FBFC0346002B87D1114B4FF071
:103A200080525A60BFF34F8F00BFBFF36F8F13E018
:103A3000386A00F0DCF900F0E9FC77E7386A00F05A
:103A4000D6F900F0E3FC386A00F023FA0346002BB5
:103A50003FF46CAF002300E068E718462837BD4606
:103A600080BD00BF00ED00E080B58AB000AF786097
:103A7000396000237B627B68FB6100233B62FB694A
:103A8000002B03D172B600BF00BFFDE7FB691B6CC2
:103A9000002B03D072B600BF00BFFDE701F0BAFAF9
:103AA0000346002B02D13B68002B01D1012300E02B
:103AB0000023002B03D172B600BF00BFFDE70DF05D
:103AC00027FCFB699B6BBB61BB69002B26D0BB69E4
:103AD0005A1EFB699A63FB691B68002B04D101F035
:103AE00083FC0246FB699A60FB691B69002B11D0BD
:103AF000FB691033184600F0AFFF0346002B09D0D6
:103B00004F4B4FF080525A60BFF34F8F00BFBFF34F
:103B10006F8F00BF0DF02CFC01238CE03B68002B65
:103B200003D10DF025FC002385E07B6A002B06D134
:103B300007F10C03184601F031F901237B620DF007
:103B400017FC00F055FC0DF0E3FBFB6993F84430E3
:103B50005BB2B3F1FF3F03D1FB69002283F844203D
:103B6000FB6993F845305BB2B3F1FF3F03D1FB69CA
:103B7000002283F845200DF0FBFB3A4607F10C03C9
:103B80001146184601F020F90346002B33D1F8699D
:103B900000F07FF90346002B27D0FB691B68002B40
:103BA00009D10DF0B5FBFB699B68184601F050FA8E
:103BB00038620DF0DDFBFB6924333A681146184684
:103BC00000F0A6FEF86900F012F900F01FFC0346B1
:103BD000002B7FF474AF1A4B4FF080525A60BFF342
:103BE0004F8F00BFBFF36F8F24E0F86900F0FFF83C
:103BF00000F00CFC63E7F86900F0F9F800F006FC4F
:103C0000F86900F046F90346002B3FF458AF3B6AD1
:103C1000002B0DD00DF07CFBF86900F041F87861C5
:103C2000FB699B687969184601F02AFB0DF0A0FB3F
:103C3000002300E043E718462837BD4680BD00BF9B
:103C400000ED00E080B584B000AF78607B68002BA9
:103C500003D172B600BF00BFFDE70DF059FB7B68D2
:103C60009B6BFB600DF084FBFB6818461037BD466C
:103C700080BD80B584B000AF78607B68FB60FB6876
:103C8000002B03D172B600BF00BFFDE7F86800F05B
:103C900075F9F868FFF7D8F800BF1037BD4680BD4A
:103CA00080B485B000AF78607B685B6A002B06D07B
:103CB0007B681B6B1B68C3F10503FB6001E00023FD
:103CC000FB60FB6818461437BD4680BC704780B562
:103CD00086B000AFF860B9607A6000237B61FB6852
:103CE0009B6B3B61FB681B6C002B0DD1FB681B6859
:103CF000002B4DD1FB689B68184601F039FA7861BA
:103D0000FB6800229A6043E07B68002B19D1FB68B6
:103D10005868FB681B6C1A46B9680EF055FEFB68C4
:103D20005A68FB681B6C1A44FB685A60FB685A6847
:103D3000FB689B689A422BD3FB681A68FB685A6041
:103D400026E0FB68D868FB681B6C1A46B9680EF061
:103D50003BFEFB68DA68FB681B6C5B421A44FB683D
:103D6000DA60FB68DA68FB681B689A4207D2FB6876
:103D70009A68FB681B6C5B421A44FB68DA607B68DC
:103D8000022B05D13B69002B02D03B69013B3B6113
:103D90003B695A1CFB689A637B6918461837BD4615
:103DA00080BD80B582B000AF786039607B681B6CE5
:103DB000002B18D07B68DA687B681B6C1A447B6820
:103DC000DA607B68DA687B689B689A4203D37B6819
:103DD0001A687B68DA607B68D9687B681B6C1A4656
:103DE00038680EF0F1FD00BF0837BD4680BD80B5D4
:103DF00084B000AF78600DF08BFA7B6893F84530A3
:103E0000FB7311E07B685B6A002B12D07B68243364
:103E1000184600F021FE0346002B01D001F02CF8DB
:103E2000FB7B013BDBB2FB7397F90F30002BE9DC26
:103E300000E000BF7B68FF2283F845200DF098FA70
:103E40000DF066FA7B6893F84430BB7311E07B6831
:103E50001B69002B12D07B681033184600F0FCFD64
:103E60000346002B01D001F007F8BB7B013BDBB21E
:103E7000BB7397F90E30002BE9DC00E000BF7B68D4
:103E8000FF2283F844200DF073FA00BF1037BD46BF
:103E900080BD80B584B000AF78600DF039FA7B68E2
:103EA0009B6B002B02D10123FB6001E00023FB6030
:103EB0000DF05EFAFB6818461037BD4680BD80B530
:103EC00084B000AF78600DF023FA7B689A6B7B6852
:103ED000DB6B9A4202D10123FB6001E00023FB600F
:103EE0000DF046FAFB6818461037BD4680BDFFFF4F
:103EF00080B485B000AF786039600023BB607B6818
:103F0000002B03D172B600BF00BFFDE73B68002B5A
:103F100024D00023FB601EE0174AFB68DB0013443B
:103F20005B687A689A4205D1FB68DB00124A134449
:103F3000BB6013E0BB68002B0AD10F4AFB6852F844
:103F40003330002B04D1FB68DB000B4A1344BB6009
:103F5000FB680133FB60FB68092BDDD9BB68002BD4
:103F600005D0BB683A681A60BB687A685A6000BFBF
:103F70001437BD4680BC7047988FFF1F80B485B052
:103F800000AF78607B68002B03D172B600BF00BF22
:103F9000FDE70023FB6016E00F4AFB68DB001344DB
:103FA0005B687A689A420BD10B4AFB68002142F8A1
:103FB0003310094AFB68DB00134400225A6006E014
:103FC000FB680133FB60FB68092BE5D900BF00BF2C
:103FD0001437BD4680BC7047988FFF1F80B586B0F0
:103FE00000AFF860B9607A60FB687B610DF090F912
:103FF0007B6993F844305BB2B3F1FF3F03D17B6937
:10400000002283F844207B6993F845305BB2B3F11A
:10401000FF3F03D17B69002283F845200DF0A8F90A
:104020007B699B6B002B06D17B6924337A68B96866
:10403000184600F0D3FC7869FFF7D9FE00BF1837A7
:10404000BD4680BD80B58CB004AFF860B9607A60C1
:104050003B607B689B001846FEF73AFE78617B69FF
:10406000002B13D06820FEF733FEF861FB69002BAC
:1040700008D068220021F869FCF788FAFB697A69A0
:104080001A6305E07869FEF7DFFE01E00023FB61BB
:10409000FB69002B13D000230393FB690293FB6A97
:1040A0000193BB6A00933B687A68B968F86800F0CE
:1040B0000EF8F86900F090F80123BB6102E04FF0C0
:1040C000FF33BB61BB6918462037BD4680BD80B554
:1040D00086B000AFF860B9607A603B60BB6A186B6D
:1040E0007B689B001A46A521FCF750FABB6A1A6B45
:1040F0007B6803F18043013B9B0013443B613B69B8
:1041000023F007033B613B6903F00703002B03D057
:1041100072B600BF00BFFDE7BB68002B20D00023B4
:104120007B6114E0BA687B69134493F90010BA6AA2
:104130007B69134434330A461A70BA687B691344A6
:1041400093F90030002B06D07B6901337B617B69DA
:104150000F2BE7D900E000BFBB6A002283F84320A1
:104160003B6A042B03D972B600BF00BFFDE73B6A70
:10417000042B01D904233B62BB6A3A6ADA62BB6A48
:104180003A6A5A64BB6A04331846FFF714F9BB6AEB
:1041900018331846FFF70FF9BB6ABA6A1A613B6A0F
:1041A000C3F10502BB6A9A61BB6ABA6A5A62BB6A0A
:1041B000196B3B68FA6838690DF01EF80246BB6A55
:1041C0001A607B6A002B02D07B6ABA6A1A6000BF51
:1041D0001837BD4680BDFFFF80B584B000AF786062
:1041E0000DF096F8404B1B6801333F4A13603F4B7C
:1041F0001B68002B09D13D4A7B6813603A4B1B6852
:10420000012B10D100F060FE0DE0394B1B68002B34
:1042100009D1364B1B68DA6A7B68DB6A9A4202D89E
:10422000324A7B681360334B1B680133314A136099
:104230007B68DA6A304B1B689A4203D97B68DB6A79
:104240002D4A13607B68DA6A2C4913469B0013449D
:104250009B000B4404331B68FB607B68FA689A6020
:10426000FB689A687B68DA60FB689B687A6804324E
:104270005A607B681A1DFB689A607B68DA6A13468D
:104280009B0013449B001D4A1A447B685A617B685B
:10429000DA6A1A4913469B0013449B000B441B68BF
:1042A000591C164813469B0013449B000344196095
:1042B0000DF05EF80E4B1B68002B10D00B4B1B68EB
:1042C000DA6A7B68DB6A9A4209D20D4B4FF0805262
:1042D0005A60BFF34F8F00BFBFF36F8F00BF00BFA7
:1042E0001037BD4680BD00BFC090FF1FE88FFF1F85
:1042F000CC90FF1FDC90FF1FC890FF1FEC8FFF1FAB
:1043000000ED00E080B584B000AF78600023FB6072
:104310007B68002B10D0114B1B68002B03D072B6AA
:1043200000BF00BFFDE700F063F80021786801F0EE
:10433000BFF900F06BF8F860FB68002B09D1084B5F
:104340004FF080525A60BFF34F8F00BFBFF36F8FA3
:1043500000BF00BF1037BD4680BD00BFE890FF1F03
:1043600000ED00E080B584B002AF1A4B019300234A
:1043700000930023802218491848FFF763FE7860F5
:104380007B68012B02D101F001FA78607B68012B78
:1043900012D101233B603B6883F3108800BF104BB0
:1043A0004FF0FF321A600F4B01221A600E4B0022B1
:1043B0001A600CF055FF07E07B68B3F1FF3F03D1B3
:1043C00072B600BF00BFFDE7084B1B6800BF08378F
:1043D000BD4680BDE490FF1F78310100914E000082
:1043E000E090FF1FCC90FF1FC490FF1F74310100AD
:1043F00080B400AF044B1B680133034A136000BF55
:10440000BD4680BC704700BFE890FF1F80B586B0F6
:1044100000AF00237B6100233B616F4B1B68002BC7
:1044200003D172B600BF00BFFDE70CF071FF6A4B0D
:104430001B68013B684A1360674B1B68002B40F008
:10444000C380664B1B68002B00F0BE808BE0644B82
:10445000DB68DB687B617B699B6ABB607B69DB69CE
:104460007A69126A9A607B691B6A7A69D2695A60B2
:10447000BB685A687B6918339A4203D17B691A6A10
:10448000BB685A607B6900229A62BB681B685A1E2F
:10449000BB681A607B695B697B607B699B687A6932
:1044A000D2689A607B69DB687A6992685A607B6837
:1044B0005A687B6904339A4203D17B69DA687B6866
:1044C0005A607B6900225A617B681B685A1E7B68B0
:1044D0001A607B69DA6A434B1B689A4203D97B698D
:1044E000DB6A404A13607B69DA6A3F4913469B00E6
:1044F00013449B000B4404331B683B607B693A68A0
:104500009A603B689A687B69DA603B689B687A6965
:1045100004325A607B691A1D3B689A607B69DA6ACB
:1045200013469B0013449B002F4A1A447B695A612F
:104530007B69DA6A2C4913469B0013449B000B44A9
:104540001B68591C284813469B0013449B000344D6
:1045500019607B69DA6A254B1B68DB6A9A4202D9CB
:10456000234B01221A601E4B1B68002B7FF46FAF98
:104570007B69002B01D000F025FD1E4B1B68FB6002
:10458000FB68002B10D000F047F80346002B02D048
:10459000174B01221A60FB68013BFB60FB68002B94
:1045A000F1D1144B00221A60114B1B68002B0BD069
:1045B00001233B61104B4FF080525A60BFF34F8F85
:1045C00000BFBFF36F8F00BF0CF0D2FE3B691846EF
:1045D0001837BD4680BD00BFE890FF1FC090FF1F89
:1045E0008090FF1FC890FF1FEC8FFF1FE88FFF1FF9
:1045F000D490FF1FD090FF1F00ED00E080B483B087
:1046000000AF044B1B687B607B6818460C37BD46C7
:1046100080BC7047C490FF1F80B588B000AF0023F6
:10462000FB61734B1B68002B40F0D880714B1B68FB
:104630000133BB616F4ABB691360BB69002B19D1A1
:104640006D4B1B681B68002B03D072B600BF00BF08
:10465000FDE7694B1B687B61684B1B68664A13600A
:10466000664A7B691360664B1B680133644A1360BA
:1046700000F0A8FC634B1B68BA699A42C0F0A7809F
:104680005D4B1B681B68002B04D15E4B4FF0FF3263
:104690001A609CE0584B1B68DB68DB683B613B6938
:1046A0005B68FB60BA69FB689A4203D2554AFB68B3
:1046B00013608CE03B695B69BB603B699B683A694E
:1046C000D2689A603B69DB683A6992685A60BB6855
:1046D0005A683B6904339A4203D13B69DA68BB6884
:1046E0005A603B6900225A61BB681B685A1EBB684E
:1046F0001A603B699B6A002B1ED03B699B6A7B60FA
:104700003B69DB693A69126A9A603B691B6A3A69DC
:10471000D2695A607B685A683B6918339A4203D160
:104720003B691A6A7B685A603B6900229A627B681F
:104730001B685A1E7B681A603B69DA6A324B1B6839
:104740009A4203D93B69DB6A2F4A13603B69DA6AF4
:104750002E4913469B0013449B000B4404331B68F3
:104760003B603B693A689A603B689A683B69DA60EB
:104770003B689B683A6904325A603B691A1D3B6882
:104780009A603B69DA6A13469B0013449B001F4AF8
:104790001A443B695A613B69DA6A1C4913469B001B
:1047A00013449B000B441B68591C184813469B007C
:1047B00013449B00034419603B69DA6A144B1B687D
:1047C000DB6A9A427FF65CAF0123FB6158E7114B2D
:1047D0001B68002B07D00123FB6104E00E4B1B6814
:1047E00001330D4A1360FB6918462037BD4680BD72
:1047F000E890FF1FC490FF1F7890FF1F7C90FF1F61
:10480000D890FF1FE090FF1FC890FF1FEC8FFF1F85
:10481000E88FFF1FD490FF1FD090FF1F80B584B09A
:1048200000AF364B1B68002B03D0354B01221A60BA
:1048300060E0334B00221A60324B1B681B6BBB607D
:104840004FF0A5337B60BB681B687A689A4211D130
:10485000BB6804331B687A689A420BD1BB68083383
:104860001B687A689A4205D1BB680C331B687A686A
:104870009A4208D0234B1A68224B1B6834331946DE
:104880001046FEF700F9204B1B68FB6009E0FB684F
:10489000002B03D172B600BF00BFFDE7FB68013BF0
:1048A000FB601A49FA6813469B0013449B000B44B3
:1048B0001B68002BEBD0FA6813469B0013449B0047
:1048C000124A13443B603B685B685A683B685A6015
:1048D0003B685A683B6808339A4203D13B68DA6800
:1048E0003B685A603B685B68DB68064A1360064AAF
:1048F000FB68136000BF1037BD4680BDE890FF1F06
:10490000D490FF1FE88FFF1FC890FF1FEC8FFF1F81
:1049100080B582B000AF786039607B68002B03D12E
:1049200072B600BF00BFFDE7074B1B68183319467E
:104930007868FEF76FFD0121386800F0B9FE00BF0E
:104940000837BD4680BD00BFE88FFF1F80B586B029
:1049500000AFF860B9607A60FB68002B03D172B6D3
:1049600000BF00BFFDE71B4B1B68002B03D172B6D5
:1049700000BF00BFFDE7184B1B68BA6842F0004259
:104980009A61FB685B687B61134B1B687A69DA612B
:10499000114B1B687A6992681A620F4B1A687B691F
:1049A0009B6818325A600C4B1B6803F118027B6934
:1049B0009A60094B1B68FA689A62FB681B685A1C6C
:1049C000FB681A600121786800F072FE00BF18379A
:1049D000BD4680BDE890FF1FE88FFF1F80B586B001
:1049E00000AFF860B9607A60FB68002B03D172B643
:1049F00000BF00BFFDE7FB685B687B61154B1B6870
:104A00007A69DA61134B1B687A6992681A62114BF2
:104A10001A687B699B6818325A600E4B1B6803F159
:104A200018027B699A600B4B1B68FA689A62FB68F4
:104A30001B685A1CFB681A607B68002B02D04FF081
:104A4000FF33BB607968B86800F032FE00BF1837EA
:104A5000BD4680BDE88FFF1F80B489B000AF78608D
:104A60007B68DB68DB68BB61BB69002B03D172B676
:104A700000BF00BFFDE7BB699B6A7B61BB69DB6967
:104A8000BA69126A9A60BB691B6ABA69D2695A60CC
:104A90007B695A68BB6918339A4203D1BB691A6AA9
:104AA0007B695A60BB6900229A627B691B685A1E47
:104AB0007B691A604A4B1B68002B5FD1BB695B693D
:104AC000FB60BB699B68BA69D2689A60BB69DB68A6
:104AD000BA6992685A60FB685A68BB6904339A42A3
:104AE00003D1BB69DA68FB685A60BB6900225A616E
:104AF000FB681B685A1EFB681A60BB69DA6A394B8F
:104B00001B689A4203D9BB69DB6A364A1360BB69EA
:104B1000DA6A354913469B0013449B000B44043367
:104B20001B68BB60BB69BA689A60BB689A68BB695E
:104B3000DA60BB689B68BA6904325A60BB691A1DA7
:104B4000BB689A60BB69DA6A13469B0013449B00FA
:104B5000254A1A44BB695A61BB69DA6A224913467D
:104B60009B0013449B000B441B68591C1E481346B2
:104B70009B0013449B00034419601BE01B4B5B68C4
:104B80003B61BB693A69DA613B699A68BB691A6241
:104B90003B699B68BA6918325A60BB6903F1180215
:104BA0003B699A60BB69114A9A62104B1B680133DA
:104BB0000E4A1360BB69DA6A0D4B1B68DB6A9A42C6
:104BC00005D90123FB610B4B01221A6001E0002390
:104BD000FB61FB6918462437BD4680BC704700BFA7
:104BE000E890FF1FC890FF1FEC8FFF1F8090FF1FF2
:104BF000E88FFF1FD490FF1F80B487B000AF7860AC
:104C00003960514B1B68002B03D172B600BF00BF47
:104C1000FDE73B6843F000427B681A607B68DB6815
:104C20007B617B69002B03D172B600BF00BFFDE73B
:104C30007B681B693B617B685B687A6892689A60F5
:104C40007B689B687A6852685A603B695B687A68DF
:104C50009A4203D17B689A683B695A607B6800225C
:104C60001A613B691B685A1E3B691A607B695B6964
:104C7000FB607B699B687A69D2689A607B69DB68B4
:104C80007A6992685A60FB685A687B6904339A4271
:104C900003D17B69DA68FB685A607B6900225A613C
:104CA000FB681B685A1EFB681A607B69DA6A274B2F
:104CB0001B689A4203D97B69DB6A244A13607B69CB
:104CC000DA6A234913469B0013449B000B440433C8
:104CD0001B68BB607B69BA689A60BB689A687B692D
:104CE000DA60BB689B687A6904325A607B691A1D76
:104CF000BB689A607B69DA6A13469B0013449B0089
:104D0000134A1A447B695A617B69DA6A104913466F
:104D10009B0013449B000B441B68591C0C48134612
:104D20009B0013449B00034419607B69DA6A094BBA
:104D30001B68DB6A9A4202D9074B01221A6000BF46
:104D40001C37BD4680BC7047E890FF1FC890FF1F0E
:104D5000EC8FFF1FE88FFF1FD490FF1F80B582B03C
:104D600000AF78607B68002B03D172B600BF00BF34
:104D7000FDE70CF0CDFA074B1A687B681A60064B0A
:104D80001A687B685A600CF0F3FA00BF0837BD461A
:104D900080BD00BFD890FF1FC490FF1F80B483B0B8
:104DA00000AF7860064B1A687B681A60054B1A687A
:104DB0007B685A6000BF0C37BD4680BC704700BF9F
:104DC000D890FF1FC490FF1F80B586B000AF7860F9
:104DD00039607B68002B03D172B600BF00BFFDE7CE
:104DE0003B68002B03D172B600BF00BFFDE70CF09B
:104DF0008FFA1F4B1B683B617B685B683A69D31A6B
:104E0000FB603B681B68B3F1FF3F02D100237B616D
:104E100026E07B681A68174B1B689A420AD07B68A9
:104E20005B683A699A4205D301237B613B680022A3
:104E30001A6015E03B681B68FA689A420BD23B681F
:104E40001A68FB68D21A3B681A607868FFF7A6FFF9
:104E500000237B6104E03B6800221A6001237B6130
:104E60000CF086FA7B6918461837BD4680BD00BF36
:104E7000C490FF1FD890FF1F80B400AF034B0122E6
:104E80001A6000BFBD4680BC704700BFD490FF1FB2
:104E900080B582B000AF786000F056F8084B1B6810
:104EA000012B09D9074B4FF080525A60BFF34F8F47
:104EB00000BFBFF36F8F00BFFDF7DFFDECE700BF62
:104EC000EC8FFF1F00ED00E080B582B000AF002343
:104ED0007B600CE07A6813469B0013449B00124AE7
:104EE00013441846FEF748FA7B6801337B607B6801
:104EF000042BEFD90D48FEF73FFA0D48FEF73CFAB8
:104F00000C48FEF739FA0C48FEF736FA0B48FEF764
:104F100033FA0B4B054A1A600A4B054A1A6000BF68
:104F20000837BD4680BD00BFEC8FFF1F5090FF1FAC
:104F30006490FF1F8090FF1F9490FF1FAC90FF1F95
:104F40007890FF1F7C90FF1F80B582B000AF19E002
:104F50000CF0DEF9104BDB68DB687B607B680433A8
:104F60001846FEF78FFA0D4B1B68013B0B4A136086
:104F70000B4B1B68013B0A4A13600CF0F9F9786887
:104F800000F010F8064B1B68002BE1D100BF00BFFA
:104F90000837BD4680BD00BF9490FF1FC090FF1F23
:104FA000A890FF1F80B582B000AF78607B681B6B54
:104FB0001846FDF749FF7868FDF746FF00BF083740
:104FC000BD4680BD80B400AF094B1B681B68002B39
:104FD00004D1084B4FF0FF321A6005E0044B1B6808
:104FE000DB681B68034A136000BFBD4680BC704786
:104FF0007890FF1FE090FF1F80B483B000AF044B98
:105000001B687B607B6818460C37BD4680BC7047C8
:10501000E88FFF1F80B483B000AF0B4B1B68002BE1
:1050200002D101237B6008E0084B1B68002B02D1F2
:1050300002237B6001E000237B607B6818460C370D
:10504000BD4680BC704700BFCC90FF1FE890FF1F9B
:1050500080B586B000AF78607B683B6100237B61E0
:105060007B68002B79D03B69DA6A3E4B1B68DB6AB0
:105070009A4269D23B699B69002B06DB394B1B685E
:10508000DB6AC3F105023B699A613B6959693B6977
:10509000DA6A13469B0013449B00334A1344994237
:1050A0004AD13B6904331846FEF7ECF92D4B1B68D7
:1050B000DA6A3B69DA623B69DA6A2C4B1B689A420E
:1050C00003D93B69DB6A294A13603B69DA6A2649DE
:1050D00013469B0013449B000B4404331B68FB6086
:1050E0003B69FA689A60FB689A683B69DA60FB681A
:1050F0009B683A6904325A603B691A1DFB689A60E2
:105100003B69DA6A13469B0013449B00164A1A4413
:105110003B695A613B69DA6A134913469B001344A1
:105120009B000B441B68591C0F4813469B001344FB
:105130009B000344196004E00A4B1B68DA6A3B6970
:10514000DA6201237B6108E03B695A6C054B1B68FE
:10515000DB6A9A4201D201237B617B6918461837CA
:10516000BD4680BDE88FFF1FEC8FFF1FC890FF1F5B
:1051700080B586B000AF78607B683B6100237B61BF
:105180007B68002B70D03B4B1B683A699A4203D076
:1051900072B600BF00BFFDE73B699B6C002B03D1DB
:1051A00072B600BF00BFFDE73B699B6C5A1E3B69AE
:1051B0009A643B69DA6A3B695B6C9A4254D03B69FA
:1051C0009B6C002B50D13B6904331846FEF75AF90B
:1051D0003B695A6C3B69DA623B69DB6AC3F10502E1
:1051E0003B699A613B69DA6A234B1B689A4203D98F
:1051F0003B69DB6A204A13603B69DA6A1F49134640
:105200009B0013449B000B4404331B68FB603B6909
:10521000FA689A60FB689A683B69DA60FB689B6889
:105220003A6904325A603B691A1DFB689A603B690F
:10523000DA6A13469B0013449B00104A1A443B69E8
:105240005A613B69DA6A0D4913469B0013449B007F
:105250000B441B68591C094813469B0013449B00D0
:105260000344196001237B617B6918461837BD46EA
:1052700080BD00BFE88FFF1FC890FF1FEC8FFF1F8E
:1052800080B588B000AF786039607B68BB6101236E
:105290007B617B68002B00F08580BB699B6C002BD9
:1052A00003D172B600BF00BFFDE7BB695B6C3A6813
:1052B0009A4202D93B68FB6102E0BB695B6CFB610F
:1052C000BB69DB6AFA699A426CD0BB699B6C7A69EC
:1052D0009A4267D1354B1B68BA699A4203D172B6BC
:1052E00000BF00BFFDE7BB69DB6A3B61BB69FA69D0
:1052F000DA62BB699B69002B04DBFB69C3F1050221
:10530000BB699A61BB6959693A6913469B001344AA
:105310009B00274A1344994244D1BB690433184681
:10532000FEF7B0F8BB69DA6A224B1B689A4203D9D0
:10533000BB69DB6A1F4A1360BB69DA6A1C49134602
:105340009B0013449B000B4404331B68FB60BB6948
:10535000FA689A60FB689A68BB69DA60FB689B68C8
:10536000BA6904325A60BB691A1DFB689A60BB694E
:10537000DA6A13469B0013449B000D4A1A44BB692A
:105380005A61BB69DA6A0A4913469B0013449B00C1
:105390000B441B68591C064813469B0013449B0092
:1053A0000344196000BF2037BD4680BDE88FFF1F52
:1053B000EC8FFF1FC890FF1F80B483B000AF094B74
:1053C0001B689B697B60074B1B68DA6A054B1B688F
:1053D000C2F105029A617B6818460C37BD4680BC55
:1053E000704700BFE88FFF1F80B400AF074B1B68FA
:1053F000002B04D0054B1B689A6C01329A64034B56
:105400001B681846BD4680BC704700BFE88FFF1F71
:1054100080B586B000AFF860B9607A60FB68002B99
:1054200003D072B600BF00BFFDE70BF071FF274B42
:105430001B68FA68183253F82230002B17D1234B1F
:105440001A68FB681344643301221A707B68002BCE
:105450000DD00121786800F02BF91D4B4FF08052E0
:105460005A60BFF34F8F00BFBFF36F8F00BF0BF0C9
:105470007FFF0BF04DFF154B1B68FA68183253F88D
:1054800022307B617B69002B12D0BB68002B07D0D8
:105490000E4B1B68FA681832002143F8221007E00F
:1054A0000A4B1B687A69511EFA68183243F82210B9
:1054B000064B1A68FB681344643300221A700BF021
:1054C00057FF7B6918461837BD4680BDE88FFF1F20
:1054D00000ED00E080B58EB000AFF860B9607A6092
:1054E000FB68002B03D172B600BF00BFFDE7BB68AD
:1054F000002B03D072B600BF00BFFDE70BF06EFFBC
:10550000FB687B63EFF31183BB61BB693B631023D3
:10551000FB61FB6983F3118800BF7A6BBB6813449E
:1055200064331B7887F82F307A6BBB68134464337D
:1055300002221A707B6BBA68183253F82230591C59
:105540007B6BBA68183243F8221097F82F30012B82
:1055500040F098807B6B9B6A002B03D072B600BF33
:1055600000BFFDE74C4B1B68002B5FD17B6B5B6979
:105570007B627B6B9B687A6BD2689A607B6BDB6823
:105580007A6B92685A607B6A5A687B6B04339A42E2
:1055900003D17B6BDA687B6A5A607B6B00225A61AD
:1055A0007B6A1B685A1E7B6A1A607B6BDA6A3B4B0C
:1055B0001B689A4203D97B6BDB6A384A13607B6BAA
:1055C000DA6A374913469B0013449B000B440433AB
:1055D0001B683B627B6B3A6A9A603B6A9A687B6B9A
:1055E000DA603B6A9B687A6B04325A607B6B1A1DE7
:1055F0003B6A9A607B6BDA6A13469B0013449B00FC
:10560000274A1A447B6B5A617B6BDA6A244913463A
:105610009B0013449B000B441B68591C20481346F5
:105620009B0013449B00034419601BE01D4B5B6807
:10563000BB627B6BBA6ADA61BB6A9A687B6B1A627F
:10564000BB6A9B687A6B18325A607B6B03F1180255
:10565000BB6A9A607B6B134A9A62124B1B680133D8
:10566000104A13607B6BDA6A0F4B1B68DB6A9A4245
:1056700008D97B68002B02D07B6801221A600B4B93
:1056800001221A603B6B7B617B6983F3118800BF49
:1056900000BF3837BD4680BDE890FF1FC890FF1F90
:1056A000EC8FFF1F8090FF1FE88FFF1FD490FF1F1C
:1056B00080B586B000AF786039602E4B1B687B6187
:1056C0002D4B1B6804331846FDF7DCFE7B68B3F1F5
:1056D000FF3F24D13B68002B21D0284B5B683B6106
:1056E000254B1B683A699A60234B1B683A6992689C
:1056F000DA60214B1A683B699B6804325A601E4B82
:105700001B681A1D3B699A601B4B1B681B4A5A6138
:105710001A4B1B680133194A136000BF26E07A69EF
:105720007B681344FB60144B1B68FA685A60FA6884
:105730007B699A4209D2124B1A680F4B1B680433DB
:1057400019461046FDF766FE10E00E4B1A680A4B2C
:105750001B68043319461046FDF75CFE0A4B1B68B4
:10576000FA689A4202D2084AFB68136000BF1837F1
:10577000BD4680BDC490FF1FE88FFF1FAC90FF1F88
:105780007C90FF1F7890FF1FE090FF1F80B584B0D2
:1057900002AF00237B6000F03BFA0D4B1B68002B2F
:1057A0000AD00C4B019303230093002380220A4963
:1057B0000A48FEF747FC78607B68002B03D172B67D
:1057C00000BF00BFFDE77B6818460837BD4680BDB7
:1057D0001C91FF1F2091FF1F8031010085580000A0
:1057E00080B584B000AFF860B9607A6008E0FB680B
:1057F0009B69BA681344BB60FB681B6AF8689847EA
:10580000FB689A69BB68D118BB687A68F86800F0D1
:10581000DFF80346002BEAD100BF00BF1037BD46BA
:1058200080BDFFFF80B584B000AF78603960144B55
:105830001B68DB68DB68FB60FB6804331846FDF718
:1058400021FEFB6893F8243003F00403002B05D0FD
:105850003A687968F868FFF7C3FF08E0FB6893F8D7
:10586000243023F00103DAB2FB6883F82420FB68BC
:105870001B6AF868984700BF1037BD4680BD00BF5F
:105880001491FF1F80B584B000AF786007F1080362
:10589000184600F05BF8F860BB681946F86800F03D
:1058A00005F800F0D7F800BFF0E7FFFF80B584B03F
:1058B00000AF78603960FEF79BFD07F108031846DA
:1058C00000F066F8F860BB68002B31D13B68002B14
:1058D0000AD17A68FB689A4206D8FEF797FDF96804
:1058E0007868FFF79FFF26E03B68002B08D0144B39
:1058F0001B681B68002B01D1012300E000233B60E3
:10590000104B18687A68FB68D31A3A681946FEF794
:1059100065FBFEF77BFD0346002B0CD10A4B4FF0D5
:1059200080525A60BFF34F8F00BFBFF36F8F02E00A
:10593000FEF76CFDFFE700BF1037BD4680BD00BF1E
:105940001891FF1F1C91FF1F00ED00E080B485B08F
:1059500000AF78600D4B1B681B68002B01D1012242
:1059600000E000227B681A607B681B68002B05D171
:10597000064B1B68DB681B68FB6001E00023FB60D3
:10598000FB6818461437BD4680BC70471491FF1F52
:1059900080B584B000AF7860FEF730FEF8600B4B46
:1059A0001B68FA689A4205D200F00CF97B68012264
:1059B0001A6002E07B6800221A60044AFB681360E8
:1059C000FB6818461037BD4680BD00BF2491FF1FFD
:1059D00080B586B000AFF860B9607A603B600023A4
:1059E0007B61FB68BA685A60FB68FA681A61BA683A
:1059F0007B689A4212D87A683B68D21AFB689B6926
:105A00009A4202D301237B611BE0104B1A68FB68AA
:105A1000043319461046FDF7FDFC12E07A683B6836
:105A20009A4206D2BA683B689A4202D301237B614C
:105A300007E0074B1A68FB68043319461046FDF768
:105A4000E9FC7B6918461837BD4680BD1891FF1FD9
:105A50001491FF1F80B586B000AFA1E07B68002BDA
:105A6000C0F29E80FB687B617B695B69002B04D080
:105A70007B6904331846FDF705FD3B461846FFF7E2
:105A800087FF38617B68013B082B00F2868001A20A
:105A900052F823F0B95A0000B95A0000215B000007
:105AA000355B0000715B0000B95A0000B95A000074
:105AB000215B0000355B00007B6993F8243043F0E4
:105AC0000103DAB27B6983F82420BA687B699B6999
:105AD000D118BB683A697869FFF77AFF0346002B53
:105AE0005DD07B6993F8243003F00403002B09D0C8
:105AF000BA687B699B6913443A6919467869FFF76C
:105B00006FFE08E07B6993F8243023F00103DAB2DA
:105B10007B6983F824207B691B6A786998473EE09B
:105B20007B6993F8243023F00103DAB27B6983F8B0
:105B3000242035E07B6993F8243043F00103DAB286
:105B40007B6983F82420BA687B699A617B699B69C9
:105B5000002B03D172B600BF00BFFDE77B699A69D5
:105B60003B69D1183B693A697869FFF731FF17E063
:105B70007B6993F8243003F00203002B03D178698A
:105B8000FDF762F90CE07B6993F8243023F0010300
:105B9000DAB27B6983F8242002E000BF00E000BF96
:105BA000074B1B68391D00221846FDF78DFE034682
:105BB000002B7FF453AF00BF00BF1837BD4680BD38
:105BC0001C91FF1F80B582B000AF09E00E4B1B682F
:105BD000DB681B683B604FF0FF313868FFF722FE3F
:105BE000094B1B681B68002BF0D1074B1B687B60BF
:105BF000064B1B68044A1360044A7B68136000BFAD
:105C00000837BD4680BD00BF1491FF1F1891FF1FCC
:105C100080B500AF0BF07CFB124B1B68002B1DD135
:105C20001148FDF7A9FB1148FDF7A6FB104B0E4AE2
:105C30001A60104B0D4A1A6000220C210A20FDF751
:105C4000CDFC0346074A1360064B1B68002B05D0AA
:105C5000044B1B6808491846FEF74AF90BF088FB0D
:105C600000BF80BD1C91FF1FEC90FF1F0091FF1F24
:105C70001491FF1F1891FF1F8831010080B582B079
:105C800000AF344B1B68002B56D10A210A20FDF7C8
:105C90000BFD03462F4A13602E4B1B68002B03D1CC
:105CA00072B600BF00BFFDE72A4B1B68002B43D034
:105CB000284B1B6828491846FEF71AF92748FDF7B4
:105CC0005BFB00233B6031E025493A681346DB006B
:105CD0009B1ADB000B44243300221A603A681346F7
:105CE000DB009B1ADB001E4A13441846FDF763FBDA
:105CF0003A681346DB009B1ADB00194A99181848CA
:105D00003A681346DB009B1ADB0003440C3319602E
:105D10003A681346DB009B1ADB00114A134419460C
:105D20000E48FDF777FB3B6801333B603B68092B6E
:105D3000CAD90C4B0A221A60064B1B68002B02D1F1
:105D400000237B6001E001237B607B6818460837F5
:105D5000BD4680BD4091FF1F943101002891FF1F77
:105D60004491FF1F3C91FF1F80B584B000AF786065
:105D70007B68FB60FB68002B05D0FB680A3BFB607F
:105D8000F868FDF761F800BF1037BD4680BDFFFF22
:105D900080B586B000AF7860396000237B616FF01A
:105DA0000043FB607B683B613A69FB689A4265D8B7
:105DB000354B1B68002B61D0334B1B683968184684
:105DC000FDF752FE0346012B58D10BF0A1FA2F4BE1
:105DD000DB68DB687B617B691846FDF753FB0BF0E2
:105DE000C7FA2A4B1B68BB60294B1B68BA689A42EA
:105DF00002D2274ABB6813607B695B6A002B03D021
:105E000072B600BF00BFFDE73B69002B36D03B698F
:105E1000412B01D842233B613B6902333B613B6923
:105E200003F00303002B04D03B6943F00303013369
